:100000000A128A11562F00308A000408840A8207D7
:1000100000346E3469347434683469347334683449
:1000200065347934793479347934793479340034F5
:10003000573445344C3443344F344D344534003414
:100EAC0083010A128A11AC2FF2008312031306106D
:100EBC008610720888000A128A1174270A128A1185
:100ECC000800F200831203130614861072088800BF
:100EDC000A128A1174270A128A110800831203134A
:100EEC0006150D30F100FB30F000F00B7B2FF10BF1
:100EFC007B2F802F8312031306110D30F100FB3072
:100F0C00F000F00B872FF10B872F8C2F0800F400CB
:100F1C009F2F740884000A128A1103200A128A1166
:100F2C000A128A1167270A128A110130F30073081A
:100F3C00F407740884000A128A1103200A128A1119
:100F4C000038031DAA2FAB2F8F2F08008316031315
:100F5C008601880183120313860188010A128A1103
:100F6C00CF270A128A1110300A128A118D270A1201
:100F7C008A11C0300A128A115A270A128A110130BA
:100F8C000A128A118D270A128A11CB2F0A128A1182
:100F9C0000288230F400DD30F300F30BD32FF40B78
:100FAC00D32FD82F38300A128A115A270A128A11D5
:100FBC000C300A128A115A270A128A1106300A12A8
:100FCC008A115A270A128A1101300A128A115A27D9
:100FDC000A128A110D30F400FB30F300F30BF42FDE
:100FEC00F40BF42FF92F80300A128A115A270A12A7
:040FFC008A1108004E
:00000001FF
